:0E2CC200E4F5C7F5C5F5C675C3FF75C4FF225E
:102A0800AD07AC06A2AF92D5C2AF75C78075C50138
:102A18008CC3AF058FC475C65A75C6A500E5C2122A
:102A280018350DBD00010C740129F9E43AFAE57E68
:102A3800157E7002157D14457D70D5122CC2A2D565
:032A480092AF2228
:102BFD00AD07AC06A2AF92D5C2AF8CC3AF058FC4E3
:102C0D0075C78075C50375C65A75C6A500122CC249
:052C1D00A2D592AF22D8
:102A4B00AD07AC06A2AF92D5C2AF75C78075C502F4
:102A5B008CC3AF058FC412181CF5C275C65A75C648
:102A6B00A5000DBD00010C740129F9E43AFAE57ECD
:102A7B00157E7002157D14457D70D5122CC2A2D522
:032A8B0092AF22E5
:1026E800900170E0FFA3E09001A9CFF0A3EFF09074
:1026F8000173E0FFA3E09001ABCFF0A3EFF09001EE
:1027080076E0FFA3E09001ADCFF0A3EFF0A37455FE
:10271800F0A374AAF090015FE0FCA3E0FDA3E0FE43
:10272800A3E0FF9001B1121959900167E0FCA3E002
:10273800FDA3E0FEA3E0FF9001B5121959E4FFFEE6
:1027480074A92FF582E43401F583E02EFE0FBF1043
:10275800EFEEF404FE74A92FF582E43401F583EE5C
:10276800F07F007E02122BFD7B017A0179A9757D2D
:0927780000757E117F00022A4B5E
:10258B007B017A0179A9757D00757E117F007E0232
:10259B00122A08E4FFFE74A92FF582E43401F583B7
:1025AB00E02EFE0FBF11EFEE70619001AFE0B4555E
:1025BB005AA3E0B4AA559001A9E0FFA3E0900170E3
:1025CB00CFF0A3EFF09001ABE0FFA3E0900173CF4E
:1025DB00F0A3EFF09001ADE0FFA3E0900176CFF018
:1025EB00A3EFF09001B1E0FCA3E0FDA3E0FEA3E0BC
:1025FB00FF90015F1219599001B5E0FCA3E0FDA318
:10260B00E0FEA3E0FF900167021959E4900170F01E
:10261B00A3F0900173F0A3F0900176F0A3F090017A
:10262B005F12196500000000900167121965000028
:02263B0000009D
:01263D00227A
:072CDD00D2A5122CE4C2A5F0
:042CE4007F0BDFFE85
:012CE80022C9
:102C4100122CE4122CE4D2A4D2A5122CE4122CE40E
:0A2C5100C2A4122CE4C2A5022CE478
:0F2CB300122CE4C2A4D2A5122CE4D2A4022CE469
:102CA100D2A4122CE4D2A5122CE4A2A4C2A5122C07
:022CB100E4221B
:02002600AE0723
:10002800E4FDEE25E0FE92A4122CDD0DBD08F302DE
:020038002CA1F9
:10000300E4FED2A4FDEE25E0FED2A5122CE4A2A4C8
:0F001300E4334206C2A5122CE40DBD08E8AF0687
:0100220022BB
:102C7500AC05AB07122C417FD0120026AF03120022
:092C850026AF04120026022CB354
:102AFF00439530439630122CE4122CE4122CE4123E
:102B0F002CE4E4FD7F6B122C757D077F19122C7559
:102B1F007D047F1A122C757D087F1B122C757D0882
:052B2F007F1C022C7563
:06291D008B588A59895A0B
:10292300122C417FD01200267F3B120026122C412D
:102933007FD1120026E4FC120003AB58AA59A95A0E
:102943008C82758300EF121847C2A4122CDD0CBCD5
:102953000DE5120003AB58AA59A95AAE048E82752D
:0E2963008300EF121847D2A4122CDD022CB311
:0A2229004201BF04B04201C11900D8
:0D2CD0004393045394FB75BC8075DE2322F2
:102B6900E4F5BDF5BEEF44C0F5BC0000000000006F
:102B7900000000007FFAE5BC30E51253BCDFAFBDB1
:102B8900EFFEADBE7C00E42DFFEC3EFE22DFE7E464
:022B9900FEFF3D
:012B9B002217
:10003E007F0A122B69AA06AB079001C1E0FEA3E06E
:10004E00FF7C007D03121869EF7802CEC313CE1326
:10005E00D8F92BFFEA3E9001C1F0A3EFF09001C159
:10006E00E0FCA3E0FDAE047802CEC313CE13D8F9A4
:10007E00FF9001BDEEF0A3EFF0E41217157B9B7A13
:10008E005A79B6783D1214EC12174E9001BFEEF06D
:04009E00A3EFF022BA
:10278100C2A0C2A1C2A2C2A35395F043960F43BAFD
:1027910080E4F5F1F5F6F5F790FFF2740BF090FF98
:1027A100F0743EF0A37480F090FF04F090FF14F0F9
:1027B10090FF24F090FF34F090FF00740FF0A374A9
:1027C100A0F090FF10740FF0A374A0F090FF20749C
:1027D1000FF0A374A0F090FF30740FF0A374A0F079
:1027E10090FF027407F0A374D0F090FF127407F009
:1027F100A374D0F090FF227407F0A374D0F090FF7F
:0F280100327407F0A374D0F075FE8053BA7F22B3
:1029C300535443313557344BCFB5C1D0B4F3CBC493
:1029D300D6E1B7C9BFD8B3CCD0F2210D0A00416EFE
:1029E300676C65583D00416E676C65593D00416EEB
:1029F300676C655A3D00615F783D00615F793D001A
:052A0300675F7A3D0051
:102233004201700000420173000042017600004435
:10224300015F000000004401670000000004420039
:1022530000000004460000000044013300000000B9
:102263004401370000000044013B0000000044012A
:102273001F00000000440123000000004401270068
:1022830000000044015B0000000044016300000003
:102293000044016B00000000043600000000043A13
:1022A30000000000043E00000000024A0000024C4F
:1022B3000000024E000002500000022D0000023018
:1022C30000000232000002340000012F000155809B
:1022D3000156800157804401470000000044011764
:1022E30000000000440000000000004401A10000C1
:1022F30000004401510000000044011B00000000E5
:10230300440004000000004401A500000000440153
:10231300430000000044014D00000000440155004B
:1023230000000004250000000001520041000900E4
:1023330041016F0041017C004100080041000D0094
:1023430041015A00048B3F800000048F000000000D
:10235300049300000000049700000000047F0000C5
:0E23630000000483000000000487000000005A
:080D0E008F5B8E5A8D598C5841
:100D1600AF6BAE6AAD69AC68AB6BAA6AA969A86825
:100D26001214ECC004C005C006C007AF67AE66ADBE
:100D360065AC64A804A905AA06AB071214ECD00397
:100D4600D002D001D0001213FBC004C005C006C0FB
:100D560007AF6FAE6EAD6DAC6CA804A905AA06AB65
:100D6600071214ECD003D002D001D0001213FB12EC
:100D760026428F738E728D718C70AF67AE66AD65CD
:100D8600AC64AB73AA72A971A8701215F58F678E41
:100D9600668D658C64AF6BAE6AAD69AC68AB73AAE1
:100DA60072A971A8701215F58F6B8E6A8D698C68A1
:100DB600AF6FAE6EAD6DAC6CAB73AA72A971A87055
:100DC6001215F58F6F8E6E8D6D8C6C7893121914CB
:100DD600788B1219301214ECC004C005C006C00787
:100DE6007897121914788F1219301214ECD003D098
:100DF60002D001D0001213F7E4FBFAF9784012147E
:100E0600EC780812194D7897121914789312193044
:100E16001214ECC004C005C006C007788F1219145E
:100E2600788B1219301214ECD003D002D001D00006
:100E36001213FBE4FBFAF978401214EC780C121941
:100E46004D788F121914788F1219301214ECC004D1
:100E5600C005C006C007788B121914788B1219309A
:100E66001214ECD003D002D001D0001213F7C00444
:100E7600C005C006C007789312191478931219306A
:100E86001214ECA804A905AA06AB07D007D006D011
:100E960005D0041213F7C004C005C006C007789732
:100EA60012191478971219301214ECD003D002D00C
:100EB60001D0001213FB781012194D780C12191478
:100EC600AB6FAA6EA96DA86C1214ECC004C005C065
:100ED60006C0077810121914AB6BAA6AA969A8682C
:100EE6001214ECD003D002D001D0001213F77814FC
:100EF60012194D7810121914AB67AA66A965A86471
:100F06001214ECC004C005C006C0077808121914F4
:100F1600AB6FAA6EA96DA86C1214ECD003D002D0E8
:100F260001D0001213F7781812194D780812191407
:100F3600AB6BAA6AA969A8681214ECC004C005C004
:100F460006C007780C121914AB67AA66A965A864CF
:100F56001214ECD003D002D001D0001213F7781C83
:100F660012194D787F121930C000C001C002C003AB
:100F76007F6F7E127D837C3A78141219301214EC3E
:100F8600D003D002D001D0001213FB787F12194D86
:100F96007883121930C000C001C002C0037F6F7E83
:100FA600127D837C3A78181219301214ECD003D0D3
:100FB60002D001D0001213FB788312194D788712E4
:100FC6001930C000C001C002C0037F6F7E127D834E
:100FD6007C3A781C1219301214ECD003D002D001DE
:100FE600D0001213FB788712194D7FCD7ECC7D4C35
:100FF6007C3F78141219301214ECAB5BAA5AA9592B
:10100600A8581213FB787F1219301213FB8F5B8ED0
:101016005A8D598C587FCD7ECC7D4C7C3F781812EA
:1010260019301214ECAB5FAA5EA95DA85C1213FB23
:1010360078831219301213FB8F5F8E5E8D5D8C5C88
:101046007FCD7ECC7D4C7C3F781C1219301214EC7F
:10105600AB63AA62A961A8601213FB7887121930E4
:101066001213FB8F638E628D618C60788B12193040
:10107600C000C001C002C003788F1219141216FFF7
:10108600AB5BAA5AA959A8581214ECC004C005C0F3
:1010960006C007AF5FAE5EAD5DAC5C7893121930EB
:1010A6001214ECA804A905AA06AB07D007D006D0EF
:1010B60005D0041213F7C004C005C006C007AF630D
:1010C600AE62AD61AC6078971219301214ECA804C8
:1010D600A905AA06AB07D007D006D005D00412137F
:1010E600F77B6F7A127983783B1214ECD003D00227
:1010F600D001D0001213FB788B12194D788F12197C
:1011060030C000C001C002C003AF63AE62AD61ACC7
:101116006078931219301214ECC004C005C006C0E2
:1011260007AF5BAE5AAD59AC58788B121930121412
:10113600ECD003D002D001D0001213FBC004C005CE
:10114600C006C007AF5FAE5EAD5DAC5C78971219A6
:10115600301214ECA804A905AA06AB07D007D006DE
:10116600D005D0041213F77B6F7A127983783B127D
:1011760014ECD003D002D001D0001213FB788F12EA
:10118600194D7893121930C000C001C002C003AFD8
:1011960063AE62AD61AC60788F1219301214ECC088
:1011A60004C005C006C007AF5FAE5EAD5DAC5C783F
:1011B6008B1219301214ECD003D002D001D00012D9
:1011C60013F7C004C005C006C007AF5BAE5AAD59E1
:1011D600AC5878971219301214ECD003D002D00113
:1011E600D0001213FB7B6F7A127983783B1214ECD2
:1011F600D003D002D001D0001213FB789312194D00
:101206007897121930C000C001C002C003AF5FAEAC
:101216005EAD5DAC5C788F1219301214ECC004C060
:1012260005C006C007AF63AE62AD61AC60788B12D5
:1012360019301214ECD003D002D001D0001213FBE7
:10124600C004C005C006C007AF5BAE5AAD59AC5866
:1012560078931219301214ECA804A905AA06AB0754
:10126600D007D006D005D0041213F77B6F7A127917
:1012760083783B1214ECD003D002D001D0001213B5
:10128600FB789712194D788F121914788F1219302E
:101296001214ECC004C005C006C007788B121914DE
:1012A600788B1219301214ECD003D002D001D00082
:1012B6001213FBC004C005C006C0077893121914A8
:1012C60078931219301214ECD003D002D001D0005A
:1012D6001213FBC004C005C006C007789712191484
:1012E600A804A905AA06AB071214ECD003D002D0B5
:1012F60001D0001213FB1226428F738E728D718CF1
:1013060070788B121914AB73AA72A971A870121592
:10131600F5788B12194D788F121914AB73AA72A92E
:1013260071A8701215F5788F12194D789312191449
:10133600AB73AA72A971A8701215F5789312194D9C
:101346007897121914AB73AA72A971A8701215F5C1
:10135600789712194D7897121914788F121930123E
:1013660014ECC004C005C006C0077893121914789F
:101376008B1219301214ECD003D002D001D0001217
:1013860013F7E4FBFAF978401214EC122A8E7BE18B
:101396007A2E796578421214EC8F458E448D438CF3
:1013A60042789712191478931219301214ECC0046B
:1013B600C005C006C007788F121914788B12193031
:1013C6001214ECD003D002D001D0001213FBE4FBC0
:1013D600FAF978401214EC122A8E7BE17A2E79659E
:0D13E60078421214EC8F498E488D478C46DA
:0113F30022D7
:0300B3000200B692
:1000B600C0E0C0F0C083C082C0D075D000C000C010
:1000C60001C002C003C004C005C006C00775F10028
:1000D600D202900175E004F0900178E004F0A3E00C
:1000E60004F0A3E004F0900197E014F0700790018B
:1000F6009DF0752980900198E014F0700790019E9C
:10010600F0752A80900199E014F0700490019FF038
:1001160090019CE014F070079001A0F0752C80050A
:1001260052E552C394FA401F7552C8E52BD394503A
:100136004004152B80110554E554C39428400875D6
:1001460054FA752B00C201E552C39419400975296A
:1001560080752A80752C80852955852A56852B2FF2
:10016600852C577B017A01798712291D900187E03A
:10017600FCA3E0FDEC121715E4FBFAF9784612151C
:10018600F590011F121959900189E0FCA3E0FDECDE
:10019600121715E4FBFAF978461215F590012312A9
:1001A600195990018BE0FCA3E0FDEC121715E4FB56
:1001B600FAF978461215F59001271219599001336C
:1001C600E0FCA3E0FDA3E0FEA3E0FF9001171219F7
:1001D60059900137E0FCA3E0FDA3E0FEA3E0FF9009
:1001E600011B121959900170E0FEA3E0FFC39001B4
:1001F60090E09FFD90018FE09EFC121715E4FBFA3C
:10020600798378421215F5900133121959900173CA
:10021600E0FEA3E0FFC3900192E09FFD900191E014
:100226009EFC121715E4FBFA798378421215F590B5
:100236000137121959900176E0FEA3E0FFC3900141
:1002460094E09FFD900193E09EFC121715E4FBFAE3
:10025600798378421215F590013B1219597F397E40
:10026600FA7D8E7C3C900133E0F8A3E0F9A3E0FA36
:10027600A3E0FB1214ECC004C005C006C0077F391A
:100286007EFA7D8E7C3C900137E0F8A3E0F9A3E08E
:10029600FAA3E0FB1214EC8F5F8E5E8D5D8C5C7FA3
:1002A600397EFA7D8E7C3C90013BE0F8A3E0F9A311
:1002B600E0FAA3E0FB1214EC8F638E628D618C6012
:1002C60090011FE0FCA3E0FDA3E0FEA3E0F5678E2E
:1002D600668D658C64A3E0FCA3E0FDA3E0FEA3E0CD
:1002E600F56B8E6A8D698C68A3E0FCA3E0FDA3E044
:1002F600FEA3E0F56F8E6E8D6D8C6CD007D006D0A8
:1003060005D004120D0EAC55E412171AE4FBFAF9E7
:1003160078C31213FBE4FBFA798078401215F5C016
:1003260004C005C006C00790015FE0F8A3E0F9A38A
:10033600E0FAA3E0FBAF45AE44AD43AC421213F77F
:10034600D003D002D001D0001213F790015B12192E
:1003560059E52FD39423900000406EE0FCA3E0FD06
:10036600A3E0FEA3E0FF90015BE0F8A3E0F9A3E0C1
:10037600FAA3E0FB1213FB9000001219599000003B
:10038600E0FCA3E0FDA3E0FEA3E0FF90015BE0F844
:10039600A3E0F9A3E0FAA3E0FB1213FB900000121E
:1003A6001959900000E0FCA3E0FDA3E0FEA3E0FFE6
:1003B60090015BE0F8A3E0F9A3E0FAA3E0FB1213D7
:1003C600FB90000012195980071219650000000001
:1003D6007F007E807DBB7C44900000E0F8A3E0F9BE
:1003E600A3E0FAA3E0FB121692600E400C90000008
:1003F60012196544BB800080257F007E807DBB7C12
:10040600C4900000E0F8A3E0F9A3E0FAA3E0FB1231
:100416001692500A900000121965C4BB80007FB383
:100426007E7B7DF27C3B900000E0F8A3E0F9A3E040
:10043600FAA3E0FB1214ECC004C005C006C0077F97
:10044600CD7ECC7DD47C4090015BE0F8A3E0F9A39F
:10045600E0FAA3E0FB1214ECD003D002D001D000E6
:100466001213FBC004C005C006C007900143E0F8A4
:10047600A3E0F9A3E0FAA3E0FB90015BE0FCA3E0B4
:10048600FDA3E0FEA3E0FF1213F7E4FBFA79C078C0
:10049600401214ECD003D002D001D0001213FB900E
:1004A600014712195990015BE0FCA3E0FDA3E0FEB1
:1004B600A3E0FF900143121959E52FD3942390012D
:1004C600A14045E0F8A3E0F9A3E0FAA3E0FBC000F1
:1004D600C001C002C003900147E0F8A3E0F9A3E021
:1004E600FAA3E0FB900137E0FCA3E0FDA3E0FEA346
:1004F600E0FF1213F7D003D002D001D0001213FB95
:100506009001A1121959800712196500000000E434
:10051600FFFE7DFA7C439001A1E0F8A3E0F9A3E099
:10052600FAA3E0FB121692600E400C9001A112197C
:100536006543FA00008024E4FFFE7DFA7CC3900147
:10054600A1E0F8A3E0F9A3E0FAA3E0FB12169250AB
:100556000A9001A1121965C3FA0000900147E0FC58
:10056600A3E0FDA3E0FEA3E0FF900137E0F8A3E0DF
:10057600F9A3E0FAA3E0FB1213FB7B0A7AD77953BF
:10058600783F1214ECC004C005C006C0077FB37ED6
:100596007B7DF27C3B9001A1E0F8A3E0F9A3E0FAB1
:1005A600A3E0FB1214ECD003D002D001D00012134A
:1005B600FBC004C005C006C00790011BE0F8A3E01D
:1005C600F9A3E0FAA3E0FB900137E0FCA3E0FDA36A
:1005D600E0FEA3E0FF1213F7E4FBFA79C0784012BD
:1005E60014ECD003D002D001D0001213FB8F398E49
:1005F600388D378C36E4FFFE7DFA7C43AB39AA385A
:10060600A937A836121692600E400C753900753857
:10061600007537FA753643E4FFFE7DFA7CC3AB39C5
:10062600AA38A937A836121692500C7539007538B3
:10063600007537FA7536C3AC56E412171AE4FBFA9E
:10064600F978C31213FBE4FBFA798078401215F5AA
:10065600C004C005C006C007900167E0F8A3E0F932
:10066600A3E0FAA3E0FBAF49AE48AD47AC46121390
:10067600F7D003D002D001D0001213FB9001631211
:100686001959E52FD39423900004406EE0FCA3E0B3
:10069600FDA3E0FEA3E0FF900163E0F8A3E0F9A369
:1006A600E0FAA3E0FB1213FB900004121959900024
:1006B60004E0FCA3E0FDA3E0FEA3E0FF900163E0FD
:1006C600F8A3E0F9A3E0FAA3E0FB1213FB90000401
:1006D600121959900004E0FCA3E0FDA3E0FEA3E09C
:1006E600FF900163E0F8A3E0F9A3E0FAA3E0FB12B0
:1006F60013FB9000041219598007121965000000B7
:10070600007F007E807DBB7C44900004E0F8A3E07F
:10071600F9A3E0FAA3E0FB121692600E400C9000DB
:100726000412196544BB800080257F007E807DBB56
:100736007CC4900004E0F8A3E0F9A3E0FAA3E0FB90
:10074600121692500A900004121965C4BB80007FED
:10075600B37E7B7DF27C3B900004E0F8A3E0F9A336
:10076600E0FAA3E0FB1214ECC004C005C006C00703
:100776007FCD7ECC7DD47C40900163E0F8A3E0F988
:10078600A3E0FAA3E0FB1214ECD003D002D001D010
:10079600001213FBC004C005C006C00790014DE05F
:1007A600F8A3E0F9A3E0FAA3E0FB900163E0FCA361
:1007B600E0FDA3E0FEA3E0FF1213F7E4FBFA79C025
:1007C60078401214ECD003D002D001D0001213FBF3
:1007D600900151121959900163E0FCA3E0FDA3E0DA
:1007E600FEA3E0FF90014D121959E52FD3942390F3
:1007F60001A54045E0F8A3E0F9A3E0FAA3E0FBC0B9
:1008060000C001C002C003900151E0F8A3E0F9A3C3
:10081600E0FAA3E0FB900133E0FCA3E0FDA3E0FED9
:10082600A3E0FF1213F7D003D002D001D0001213B9
:10083600FB9001A5121959800712196500000000E6
:10084600E4FFFE7DFA7C439001A5E0F8A3E0F9A35E
:10085600E0FAA3E0FB121692600E400C9001A5127E
:10086600196543FA00008024E4FFFE7DFA7CC390FC
:1008760001A5E0F8A3E0F9A3E0FAA3E0FB121692C3
:10088600500A9001A5121965C3FA0000900151E0C3
:10089600FCA3E0FDA3E0FEA3E0FF900133E0F8A394
:1008A600E0F9A3E0FAA3E0FB1213FB7B0A7AD779FF
:1008B60053783F1214ECC004C005C006C0077FB3CE
:1008C6007E7B7DF27C3B9001A5E0F8A3E0F9A3E0F6
:1008D600FAA3E0FB1214ECD003D002D001D0001230
:1008E60013FBC004C005C006C007900117E0F8A3BB
:1008F600E0F9A3E0FAA3E0FB900133E0FCA3E0FDFE
:10090600A3E0FEA3E0FF1213F7E4FBFA79C07840F8
:100916001214ECD003D002D001D0001213FB8F3D8D
:100926008E3C8D3B8C3AE4FFFE7DFA7C43AB3DAAC0
:100936003CA93BA83A121692600E400C753D007514
:100946003C00753BFA753A43E4FFFE7DFA7CC3AB87
:100956003DAA3CA93BA83A121692500C753D00756B
:100966003C00753BFA753AC3AC57E412171AE4FB20
:10097600FAF978C31213FBA804A905AA06AB0790D7
:10098600013BE0FCA3E0FDA3E0FEA3E0FF1213F7AA
:1009960090016B121959E52FD394234023AF28AE4B
:1009A60027AD26AC2590016BE0F8A3E0F9A3E0FAA9
:1009B600A3E0FB1213FB8F288E278D268C25800C37
:1009C600752800752700752600752500E4FFFE7D55
:1009D600FA7C43AB28AA27A926A8251216926010EE
:1009E600400E7528007527007526FA752543802068
:1009F600E4FFFE7DFA7CC3AB28AA27A926A8251208
:100A06001692500C7528007527007526FA7525C3B1
:100A16007FCD7ECC7DCC7C3DAB28AA27A926A825F8
:100A26001214ECC004C005C006C007E4FFFE7DA09A
:100A36007C4090016BE0F8A3E0F9A3E0FAA3E0FBA9
:100A46001214ECD003D002D001D0001213FBC00464
:100A5600C005C006C007900155E0F8A3E0F9A3E081
:100A6600FAA3E0FB90016BE0FCA3E0FDA3E0FEA38C
:100A7600E0FF1213F7E4FBFA798078401214ECD009
:100A860003D002D001D0001213FB8F418E408D3F60
:100A96008C3E90016BE0FCA3E0FDA3E0FEA3E0FF2B
:100AA600900155121959E4FFFE7D487C43AB41AADB
:100AB60040A93FA83E121692600E400C7541007583
:100AC6004000753F48753E43E4FFFE7D487CC3AB5E
:100AD60041AA40A93FA83E121692500C75410075D6
:100AE6004000753F48753EC3AF3DAE3CAD3BAC3AAA
:100AF600AB39AA38A937A8361213FBAB41AA40A9CD
:100B06003FA83E1213FB12174E8E4A8F4BAB3DAADF
:100B16003CA93BA83AAF39AE38AD37AC361213F71D
:100B2600AB41AA40A93FA83E1213F712174E8E4CAE
:100B36008F4DAF39AE38AD37AC361216FFAB3DAA86
:100B46003CA93BA83A1213F7AB41AA40A93FA83EDD
:100B56001213FB12174E8E4E8F4FAF39AE38AD378C
:100B6600AC361216FFAB3DAA3CA93BA83A1213FBC2
:100B7600AB41AA40A93FA83E1213F712174E8E505A
:100B86008F51E52FC3940A5015752D03752EE87500
:100B960030037531E87532037533E8020C93E52F9F
:100BA600C39423501B752D03752E5C753003753168
:100BB6005C75320375335C75340375355C020CAEB7
:100BC600E52F75F004A4FFAEF0C374E89FF5237417
:100BD600039EF522C3E523954BF52EE522954AF5AE
:100BE6002DD3E52E94E8E52D648094834008752D79
:100BF60003752EE88013C3E52E940AE52D648094D0
:100C0600805006752D00752E0AC3E523954DF531E6
:100C1600E522954CF530D3E53194E8E530648094CF
:100C26008340087530037531E88013C3E531940AB3
:100C3600E53064809480500675300075310AC3E54E
:100C460023954FF533E522954EF532D3E53394E8F7
:100C5600E5326480948340087532037533E8801367
:100C6600C3E533940AE532648094805006753200F9
:100C760075330AC3E5239551F535E5229550F534CC
:100C8600D3E53594E8E534648094834008753403ED
:100C96007535E88013C3E535940AE534648094809D
:100CA600500675340075350A85BA2443BA80E52E98
:100CB60025E0FEE52D3390FF02F0A3CEF0E53125C9
:100CC600E0FEE5303390FF12F0A3CEF0E53325E0E9
:100CD600FEE5323390FF22F0A3CEF0E53525E0FEA7
:100CE600E5343390FF32F0A3CEF08524BAD007D096
:100CF60006D005D004D003D002D001D000D0D0D089
:080D060082D083D0F0D0E0326E
:1029710090019BE0D39400404690019AE0FF7019CA
:1029810090017BE07013D2CD900185E090019AF027
:10299100900159E090017BF022EFD39400400B901D
:1029A100019AE014F0701AC2CD2290017BE0D39419
:1029B10000400EE014F0700990019BE014F022C277
:0229C100CD2225
:102AC90090019BEBF0900185EFF0900159EDF0EF4B
:102AD900700590018504F0900159E0700204F090AE
:102AE900019BE0B401069001597401F0E490019A48
:062AF900F090017BF022C9
:10209900E52BC39428400302221F90000DE0FFB4F2
:1020A900011CE490013FF0A3F0A3F0A3F090014BD1
:1020B900F0A3F090015AF090000D7402F022EF6441
:1020C90002600302217E90018FE0FEA3E0FF9001F0
:1020D90040E02FF090013FE03EF0900191E0FEA337
:1020E900E0FF900142E02FF0900141E03EF09001C5
:1020F90093E0FEA3E0FF90014CE02FF090014BE04C
:102109003EF090015AE004F0C394405003022228A3
:1021190090013FE0FEA3E0FF7C007D401218D090C3
:102129000170EEF0A3EFF0900141E0FEA3E0FF7C27
:10213900007D401218D0900173EEF0A3EFF09001EA
:102149004BE0FEA3E0FF7C007D401218D0900176A1
:10215900EEF0A3EFF090012B12196500000000903A
:10216900012F12196500000000E490015AF0900057
:102179000D7403F02290000DE0640360030222282D
:1021890090012BE0FCA3E0FDA3E0FEA3E0FFAB453B
:10219900AA44A943A8421213FB90012B1219599082
:1021A900012FE0FCA3E0FDA3E0FEA3E0FFAB49AAF9
:1021B90048A947A8461213FB90012F1219599001FB
:1021C9005AE004F0C394404056E4F090000DF0FB4F
:1021D900FA7980784290012BE0FCA3E0FDA3E0FEB0
:1021E900A3E0FF1215F590015F121959E4FBFA7982
:1021F90080784290012FE0FCA3E0FDA3E0FEA3E07C
:10220900FF1215F59001671219591226E87B017D15
:10221900017F05022AC9E490000DF090015AF022CD
:10199600E4F594F593F592F591F596F595F5B2F58E
:1019A600B1F5B4F5B3F5CAF5C9F5CCF5CBF5E2F565
:1019B600E1752980752A80F52B752C80122781C246
:1019C600CCC2CD53C9CF43CA30122CD0122B9C7F28
:1019D600641200A212258B122AFF7F641200A275E0
:1019E600FEC0D2AFE4F553E553C39419501C30053D
:1019F60012C205900013E094B0900012E0940450D7
:101A06000205537F011200A280DDC2CCE4F5537BB0
:101A1600017D017F05122AC9122BCE7BFF7A297917
:101A2600C3122C8EC201300348C20390000EE0FEA2
:101A3600A3E0FFC39460EE9404500C90000E74046F
:101A4600F0A37460F08013D3EF9458EE9407400A25
:101A560090000E7407F0A37458F090000FE024A4D1
:101A6600FF90000EE034FBFE7C007D0312187B8F96
:101A76002A300448C204900010E0FEA3E0FFC3949D
:101A860060EE9404500C9000107404F0A37460F09F
:101A96008013D3EF9458EE9407400A900010740711
:101AA600F0A37458F0900011E024A4FF900010E019
:101AB60034FBFE7C007D0312187B8F29200603026F
:101AC6001B4DC206C3900015E09420900014E094CC
:101AD6000450077404F0A37420F0D3900015E0942A
:101AE60094900014E0940740077407F0A37494F0F0
:101AF600900014E0FEA3E0FFC394A0EE9405500D01
:101B0600E0243CF0900014E03400F08023D3EF94FE
:101B160018EE94064010900015E024C4F0900014CE
:101B2600E034FFF0800A9000147405F0A374DCF032
:101B3600900015E024A4FF900014E034FBFE7C0026
:101B46007D0312187B8F2C200503021CBDC205C322
:101B5600900013E094E8900012E094035007740399
:101B6600F0A374E8F0D3900013E0946C900012E0B8
:101B7600940740077407F0A3746CF0300156900088
:101B860012E0FCA3E0FD2418FFEC34FCFEEF780223
:101B9600CEC313CE13D8F9F52BC394205003752B5F
:101BA60020E529C394325029E52AC394325022C332
:101BB600ED9460EC94045019E52C94C84013055339
:101BC600E55394325003021CBDE4F553C201021CD6
:101BD600AF021CBAE4F52BE529C394325035E52A49
:101BE60094C8402F900013E09460900012E0940493
:101BF6005021E52CC39432501A0553E553C3943251
:101C06005003021CBDE4F553D2017B017D017F0523
:101C1600021CB5E529D394C84039E52AD394C840B7
:101C260032D3900013E0943A900012E094074023D8
:101C3600E52C9432501D0553E553C394324078E4A5
:101C4600F5537B017D017F02122AC990000D7401B4
:101C5600F08064E529D394C8405AE52A943250545A
:101C6600900013E0943A900012E094074046E52C69
:101C7600D394C8403F0553E5539432403AE4F553B4
:101C8600900170F0A3F0900173F0A3F0900176F04C
:101C9600A3F090015F121965000000009001671221
:101CA6001965000000001226E87B027D017F011203
:101CB6002AC98003E4F553200203021D7BC2029069
:101CC600000DE0600312209912003E900016E00419
:101CD600F0C3940C4005E4F012297190000AE0F577
:101CE600F004F0E0FFE5F06FFEEF5EF5F030F2187D
:101CF600300703021D7BE552C39478507820010417
:101D0600C2CC8071D2CC806D30F40E200707E5522C
:101D1600C394784060B2CC805C30F6439001BFE05B
:101D2600FEA3E0FFC39442EE648094845004D2077D
:101D3600800DD3EF9456EE648094844002C207303F
:101D460007097B027D017F01122AC930080312248C
:101D56009A200721E552C39478501AD2CC801630C7
:101D6600F713200710E552C3947840097B037D01E1
:101D76007F01122AC9900009E0600AB46102B20824
:101D8600E4900009F090017CE0FF90016FE0FE6FA7
:101D96007003021A2C300003021A2C74972EF58257
:101DA600E43400F583E0F599D20090016FE004F089
:0D1DB600C394805003021A2CE4F0021A2C92
:10249A007F56122B4C7F3D122B4C9001BFE0FEA3BE
:1024AA00E0FF7C037DE8122B459001BFE0FEA3E02C
:1024BA00FF122B347F2E122B4C9001BFE0FEA3E0BB
:1024CA00FF7C007D641218D07F0A122B3D9001BF59
:1024DA00E0FEA3E0FF7C007D0A1218D0ED2430FF55
:1024EA00122B4C7F20122B4C7F20122B4C7BFF7A15
:1024FA002979E1122C8EE4FFFE7D207C41AB45AAAE
:10250A0044A943A8421228AE7BFF7A2979E9122C02
:10251A008EE4FFFE7D207C41AB49AA48A947A84624
:10252A001228AE7BFF7A2979F1122C8E90013B1288
:10253A00289C7BFF7A2979F9122C8E90015F122848
:10254A009C7BFF7A2979FE122C8EE4FFFE7D207C8B
:10255A00419001671228A37BFF7A2A7903122C8EF5
:10256A00900176E0FEA3E0FF7C007D0A1218691252
:10257A0028B4E4900008F07F0D122B4C7F0A022B3E
:01258A004C04
:0F00A2007D367C07ED1D70011C144C70F7DFF1EB
:0100B100222C
:10289C00E4FFFE7D207C41E0F8A3E0F9A3E0FAA37D
:0828AC00E0FB1214EC12174EC0
:1028B4008E788F79C3E5786480948050127F2D12CE
:1028C4002B4CC3E49579F579E49578F57880057F08
:1028D40020122B4CAE78AF797C037DE8122B45AEE9
:1028E40078AF79122B34AE78AF797C007D641218FE
:1028F400D07E007F0A122B3F7F2E122B4CAE78AF76
:10290400797C007D0A1218D0ED2430FF122B4C7F05
:0929140020122B4C7F20022B4CF9
:102B34007C037DE81218D07F647E00CFCDCFCECC4D
:082B4400CE1218D0EF2430FF7F
:102B4C0090017CE02497F582E43400F583EFF0905B
:0D2B5C00017CE004F0C394804002E4F0220C
:102C8E0012181CFF600C122B4C740129F9E43AFA4D
:032C9E0080EE22A3
:102C5B00AD07AC06538EEF538EF7438E048CD6AF75
:0A2C6B00058FD753AFFB438E1022F4
:102BCE00438E017FCC7EFF122C5BE598543F444030
:102BDE00F598D2BCD2ACD29C53A23FC200E4900175
:0F2BEE006FF090017CF0900009F0900008F02249
:03002300022C228A
:102C2200C0E0C083C082309808C298900009E5993C
:0F2C3200F0309904C299C200D082D083D0E03232
:102B9C00E4900175F0900178F0A3F0A3F0C2DEF59B
:102BAC00F9F5E953A2CF53D9F1D2BF75DA31F5F269
:102BBC0075DB31F5F375DC31F5F475DD31F5F5D2F6
:022BCC00DE2207
:03003B00021DC3E0
:101DC300C0E0C083C082C0D075D000C004C005C0CD
:101DD30006C00720D803021E81C2D830971DAFFA70
:101DE300EFFEADEA7C00E42DFFEC3E90017DF0A315
:101DF300EFF09001757401F0021E81AFFAEFFEADB2
:101E0300EA7C00E42DFFEC3E90000BF0A3EFF09092
:101E13000175E06064C39403505F90017DE0FEA30D
:101E2300E0FFC390000CE09FFF90000BE09EC31304
:101E3300FEEF13FFEEF0A3EFF0C39420EE94034004
:101E43003890000BE0FEA3E0FFD394C4EE94095056
:101E53002890019DE004F0C3940540037405F090BD
:101E6300019DE0B4051320031090000EEEF0A3EFE4
:101E7300F0D203900197740CF0900175E4F020D92F
:101E830003021F2CC2D930961DAFFBEFFEADEB7CD6
:101E930000E42DFFEC3E90017FF0A3EFF09001787A
:101EA3007401F0021F2CAFFBEFFEADEB7C00E42DC1
:101EB300FFEC3E90000BF0A3EFF0900178E060643C
:101EC300C39403505F90017FE0FEA3E0FFC3900043
:101ED3000CE09FFF90000BE09EC313FEEF13FFEE99
:101EE300F0A3EFF0C39420EE9403403890000BE08E
:101EF300FEA3E0FFD394C4EE9409502890019EE022
:101F030004F0C3940540037405F090019EE0B4050A
:101F130013200410900010EEF0A3EFF0D204900110
:101F230098740CF0900178E4F020DA03021FDDC20C
:101F3300DA30951DAFFCEFFEADEC7C00E42DFFEC39
:101F43003E900181F0A3EFF09001797401F0021F3C
:101F5300DDAFFCEFFEADEC7C00E42DFFEC3E90002A
:101F63000BF0A3EFF0900179E0606AC3940350652E
:101F7300900181E0FEA3E0FFC390000CE09FFF907F
:101F8300000BE09EC313FEEF13FFEEF0A3EFF0C3CD
:101F93009420EE9403403E90000BE0FEA3E0FFD3B9
:101FA30094C4EE9409502E90019FE004F0C394056D
:101FB30040037405F090019FE0B4051920051690C5
:101FC3000012EEF0A3EFF0D2059001997419F075A9
:101FD3005200755400900179E4F020DB030220885D
:101FE300C2DB30941DAFFDEFFEADED7C00E42DFFB1
:101FF300EC3E900183F0A3EFF090017A7401F002BC
:102003002088AFFDEFFEADED7C00E42DFFEC3E90AC
:10201300000BF0A3EFF090017AE06064C3940350E7
:102023005F900183E0FEA3E0FFC390000CE09FFFFD
:1020330090000BE09EC313FEEF13FFEEF0A3EFF04F
:10204300C39420EE9403403890000BE0FEA3E0FF1E
:10205300D394C4EE940950289001A0E004F0C394F3
:102063000540037405F09001A0E0B40513200610A9
:10207300900014EEF0A3EFF0D20690019C740CF0E4
:1020830090017AE4F0D007D006D005D004D0D0D0A8
:0620930082D083D0E03290
:1013F4000217BAE86480F8E933E83360110460F056
:10140400ED33EC337009E8FCE9FDEAFEEBFF22045E
:1014140060DED3EB9FEA9EE99DE8C2E78CF0C2F759
:1014240095F0400CE8CCF8E9CDF9EACEFAEBCFFB25
:1014340012178585D0F05804700320D5B3E80470E2
:10144400075002B2D50217C492D5EC0460F7E4CC7D
:10145400C0E0C398F8603B94186008400DD0E0FBEE
:1014640002179CE4FBFAC9FC8028E830E406E4C9CE
:10147400FBE4CAFCE830E305E4C9CACBFCE8540742
:101484006010F8C3E913F9EA13FAEB13FBEC13FC4D
:10149400D8F130F52FC3E49CFCEF9BFFEE9AFEEDF0
:1014A40099FDD0E0FBEF4E4D4C701222DB03021786
:1014B400C1EC2CFCEF33FFEE33FEED33FDED30E7F2
:1014C400EB02179CEF2BFFEE3AFEED39FDD0E0FB6B
:1014D40050130BBB00030217C4ED13FDEE13FEEF14
:0814E40013FFEC13FC02179C3E
:1014EC00EC4D6011E8497017ED33EC3304600DE4FA
:1014FC00FCFFFEFD22E933E8330470F80217BA1240
:10150C00178558046009E4CC248150062850090240
:10151C0017C42840030217C1C0E0EB4A7044B980DD
:10152C0006D0E0FB0217B0EF4E701CBD8008EBFF3D
:10153C00EAFEE9FD80EBE98DF0A4FEE5F00215D59D
:10154C00E9CDF9EAFEEBFFEF89F0A4FCE5F0CE89DA
:10155C00F0A42EFFE435F0CD89F0A42DFEE435F097
:10156C008067EF4E7005BD80D780C3EF8BF0A4ACC5
:10157C00F0EE8BF0A42CFCE435F0F8EF8AF0A42C00
:10158C00E5F038FCE433CB8DF0A42CFCE5F03BF813
:10159C00EE8AF0A42CFCE5F038F8E433CF89F0A403
:1015AC002CFCE5F038CF3400CE89F0A42FFFE5F009
:1015BC003EFEE433C98DF0A42EFEE5F039CD8AF061
:1015CC00A42FFFE5F03EFEE43DFD33D0E0FB5007D9
:1015DC000BBB000F0217C4EC2CFCEF33FFEE33FEF9
:0615EC00ED33FD02179C27
:1015F2000217C4EC5D046005E8590470030217BACF
:10160200121785580460F6EC4860F2EC7004FDFE97
:10161200FF22C860DB2481C85009C39860025006CB
:101622000217C19850CAF582E9294B4A7005AB826C
:101632000217B075F0007C1A7880C3EF9BEE9AED2A
:1016420099400DC3EF9BFFEE9AFEED99FDE842F043
:10165200DC23ACF0D0E0FFD0E0FED0E0FDAB822096
:10166200E7101BEB60BAEC2CFCEF33FFEE33FEED20
:1016720033FD02179CE803F830E705C0F075F0006F
:10168200EF2FFFEE33FEED33FD40B830E7C280AA04
:1016920074F8CC6480CCC86480C8F582046043C30B
:1016A200EB9FF5F0EA9E42F0E99D42F0E89C45F09E
:1016B20060305018E5825FFFE582F42B5582FB50C3
:1016C200210ABA001D09B90019088016E5825BFBE0
:1016D200E582F42F5582FF50090EBE00050DBD00B4
:1016E200010CC3EB9FF5F0EA9E42F0E99D42F0E85F
:0D16F2009C45F06007CC4820E701B3EC22D6
:1016FF00ED33EC33600A047003BD8004ECB2E7FCF9
:01170F0022B7
:1017100075F020800E75F010800575F0087D007E54
:10172000007F003392D530D503121906EC334010F8
:10173000EF33FFEE33FEED33FDEC33FCD5F0ED225D
:0E174000E5F0247EA2D513CC92E7CDCEFF2299
:10174E00EDD2E7CD33EC3392D524814006E4FFFE93
:10175E00FDFC22FCE4CFCECDCC24E0501174FF80F2
:10176E00EDC3CC13CCCD13CDCE13CECF13CF04708F
:07177E00F030D5DE02190670
:10263E000217BA22EDA2E7D2E7F9EC3340F260F3CB
:10264E00B4FF08ED547F70E80217C4F82481C2E08D
:10265E00C0E0F40428FAC313FCED92E7FD8C748DF0
:10266E00758E768F77EEA2E7E9BA7F02C313340038
:10267E009400FA75F091A4E5F013F494FE8AF0A498
:10268E0033E5F033248CD313FDE492E7FE7F007C18
:10269E003F758302ECC0E0F8EDC0E0F9EEC0E0FA61
:1026AE00EFC0E0FBAC74AD75AE76AF771215F5D01A
:1026BE00E0FBD0E0FAD0E0F9D0E0F81213FBED64C5
:1026CE0080FD30E7011CD583CBED33CC33F8D0E061
:0A26DE00A2E71328C313CC13FD225A
:102A8E00ECC0E0F8EDC0E0F9EEC0E0FAEFC0E0FB1C
:102A9E001214ECEC6480FC7B007A007980783F1293
:102AAE0013FB122642D0E0CFFBD0E0CEFAD0E0CD21
:0B2ABE00F9D0E0CCF81215F5022392CD
:10178500E9D2E7C933E833F892D5EDD2E7CD33ECAA
:0717950033FC5002B2D52223
:10179C00EC30E7100FBF000C0EBE00080DBD0004AE
:1017AC000BEB6014A2D5EB13FCED92E7FD2274FF5A
:1017BC00FCFDFEFF22E480F8A2D574FF13FC7D80B3
:0317CC00E480EFC7
:10237200BE1249253E4CCCCDBEAAAAAB3F8000007E
:102382003E7ADBB03EED63383F24BC7D3F490FDB34
:10239200ED33ECC2E7CC33920AB4FF13ED547F6005
:1023A200030217BA7FDB7E0F7DC97C3F02248DC2F8
:1023B2000BC3947F401E7007EDD2E794904015EF57
:1023C200FBEEFAEDF9ECF87F007E007D807C3F1297
:1023D20015F5D20BED33EC33248430E705E4C0E08D
:1023E200806D04FAEDD2E754F0C333DAFD540734BA
:1023F200002323C0E0CCC0E0F8EDC0E0F9EEC0E07D
:10240200FAEFC0E0FBE412171AEC24FEFC8C748D88
:10241200758E768F771214EC7B007A007980783F84
:102422001213FBECC574B2E7FCEDC575FDEEC57683
:10243200FEEFC577FFD0E0FBD0E0FAD0E0F9D0E0C4
:10244200F81213FBA874A975AA76AB771215F58C4E
:10245200748D758E768F7790237274031217CFA8BE
:1024620074A975AA76AB771214ECD0E0600F247EC3
:10247200F582E43423F58312193D1213FB300B0B62
:102482007BDB7A0F79C978BF1213FBED33EC336033
:0824920006ECA20A92E7FC220D
:1017CF00C0E0EFFBEEFAEDF9ECF81214ECD0E0F517
:1017DF00F0EFFBEEFAEDF9ECF8121920A3A3A3A397
:1017EF00E8C0E0E9C0E0EAC0E0EBC0E0C0F01214EE
:1017FF00EC12193DA3A3A3A31213FBD0F0D0E0FB6F
:0D180F00D0E0FAD0E0F9D0E0F8D5F0D42216
:03000000022810C3
:0C281000787FE4F6D8FD75819A02285705
:10181C00BB010689828A83E0225002E722BBFE02CA
:09182C00E32289828A83E49322FD
:10183500BB010689828A83F0225002F722BBFE0192
:02184500F3228C
:10184700F8BB010DE58229F582E5833AF583E8F0D7
:10185700225006E92582C8F622BBFE05E92582C883
:02186700F2226B
:10186900EF8DF0A4A8F0CF8CF0A428CE8DF0A42E93
:02187900FE224D
:10187B00BC000BBE0029EF8DF084FFADF022E4CC51
:10188B00F875F008EF2FFFEE33FEEC33FCEE9DEC1A
:10189B00984005FCEE9DFE0FD5F0E9E4CEFD22ED60
:1018AB00F8F5F0EE8420D21CFEADF075F008EF2FAA
:1018BB00FFED33FD4007985006D5F0F222C398FD9B
:0518CB000FD5F0EA2238
:1018D000C2D5EC30E709B2D5E4C39DFDE49CFCEE33
:1018E00030E715B2D5E4C39FFFE49EFE12187BC318
:1018F000E49DFDE49CFC800312187B30D507C3E413
:061900009FFFE49EFE22A1
:0E190600C3E49FFFE49EFEE49DFDE49CFC22F2
:0C191400E6FC08E6FD08E6FE08E6FF22FF
:10192000E493FC740193FD740293FE740393FF220D
:0D193000E6FB08E6F908E6FA08E6CBF82227
:10193D00E493F8740193F9740293FA740393FB2200
:0C194D00ECF608EDF608EEF608EFF622C6
:0C195900ECF0A3EDF0A3EEF0A3EFF02201
:10196500A8828583F0D083D08212197C12197C124B
:10197500197C12197CE473E493A3C583C5F0C58370
:10198500C8C582C8F0A3C583C5F0C583C8C582C8CC
:01199500222F
:10281C00021996E493A3F8E493A34003F68001F223
:10282C0008DFF48029E493A3F85407240CC8C333BD
:10283C00C4540F4420C8834004F456800146F6DF8C
:10284C00E4800B0102040810204080902229E47ED1
:10285C00019360BCA3FF543F30E509541FFEE49381
:10286C00A360010ECF54C025E060A840B8E493A348
:10287C00FAE493A3F8E493A3C8C582C8CAC583CA73
:10288C00F0A3C8C582C8CAC583CADFE9DEE780BE2B
:01237100006B
:00000001FF
